:100800007F387E0012087F7F0E7E0012087F7F01F6
:100810007E0012087F7F807E0012087F7F467E0068
:1008200012088B7F557E0012088B7F437E001208D2
:100830008B7F4B7E0012088B7FC07E0012087F7F6B
:10084000597E0012088B7F4F7E0012088B7F557EE9
:060850000012088B80BFBE
:0C087F008F90C2A1C2A0120856C2A22293
:0C088B008F90C2A1D2A0120856C2A22277
:06085600D2A27F0A7E0021
:10085C00E4FDFCC3ED9FEC9E5018E4FBFAC3EB9F48
:10086C00EA9E50070BBB00010A80F20DBD00010C83
:02087C0080E119
:01087E002257
:030000000208975C
:0C089700787FE4F6D8FD758107020800A8
:00000001FF
